{
  "transactions": [
    {
      "hash": "0x6b4665a1ebb3723b982250cc9ff0e1604aa2769e15e9b37549fa10684d52163f",
      "transactionType": "CREATE",
      "contractName": "WalletFactory",
      "contractAddress": "0xae07f2b3168279f9ec68ae25d680cd5e3b96d21c",
      "function": null,
      "arguments": [
        "0xcAc30D6Dc9bEED0D31699c059ceD50d0b8279aeF",
        "0x0B7f332ECeF4141B6eb314C96363E777D1Ede2a4",
        "0xf99F35d284675D594Cf0dda5C7B8979Df947e134",
        "2760"
      ],
      "transaction": {
        "from": "0xeba32c7eadc77e27efe143a4791facf3d8e4d264",
        "gas": "0x27ff9b",
        "value": "0x0",
        "input": "0x60c060405234801561000f575f80fd5b5060405161259a38038061259a83398101604081905261002e916100d3565b833084848460405161003f906100af565b6001600160a01b0395861681529385166020850152918416604084015290921660608201526001600160401b03909116608082015260a001604051809103905ff080158015610090573d5f803e3d5ffd5b506001600160a01b039081166080529190911660a0525061013a915050565b611bd5806109c583390190565b6001600160a01b03811681146100d0575f80fd5b50565b5f805f80608085870312156100e6575f80fd5b84516100f1816100bc565b6020860151909450610102816100bc565b6040860151909350610113816100bc565b60608601519092506001600160401b038116811461012f575f80fd5b939692955090935050565b60805160a05161085761016e5f395f818160bc01526101de01525f818160820152818161016101526102a601526108575ff3fe608060405234801561000f575f80fd5b506004361061004a575f3560e01c806355af67d81461004e5780638117abc11461007d5780638f9f72b4146100a4578063b4fd7296146100b7575b5f80fd5b61006161005c3660046103a9565b6100de565b6040516001600160a01b03909116815260200160405180910390f35b6100617f000000000000000000000000000000000000000000000000000000000000000081565b6100616100b23660046103a9565b610246565b6100617f000000000000000000000000000000000000000000000000000000000000000081565b5f806100ec86868686610246565b90506001600160a01b0381163b80156101075750905061023e565b6040516001600160a01b03808916602483015287166044820152606481018590525f9060840160408051601f198184030181529181526020820180516001600160e01b03166305e52ecf60e21b179052519091505f9087907f000000000000000000000000000000000000000000000000000000000000000090849061018c90610381565b6101979291906103e8565b8190604051809103905ff59050801580156101b4573d5f803e3d5ffd5b50604051633220db4f60e21b81526001600160a01b038083166004830152600160248301529192507f00000000000000000000000000000000000000000000000000000000000000009091169063c8836d3c906044015f604051808303815f87803b158015610221575f80fd5b505af1158015610233573d5f803e3d5ffd5b509296505050505050505b949350505050565b6040516001600160a01b03808616602483015284166044820152606481018290525f90819060840160408051601f19818403018152918152602080830180516001600160e01b03166305e52ecf60e21b17905290519192505f916102ce917f0000000000000000000000000000000000000000000000000000000000000000918591016103e8565b60405160208183030381529060405290505f604051806020016102f090610381565b601f1982820381018352601f90910116604081905261031491908490602001610443565b60408051601f19818403018152919052805160208201209091506103388782610345565b9998505050505050505050565b5f610351838330610358565b9392505050565b5f604051836040820152846020820152828152600b8101905060ff815360559020949350505050565b6103ca8061045883390190565b80356001600160a01b03811681146103a4575f80fd5b919050565b5f805f80608085870312156103bc575f80fd5b6103c58561038e565b93506103d36020860161038e565b93969395505050506040820135916060013590565b60018060a01b0383168152604060208201525f82518060408401528060208501606085015e5f606082850101526060601f19601f8301168401019150509392505050565b5f81518060208401855e5f93019283525090919050565b5f61023e610451838661042c565b8461042c56fe60806040526040516103ca3803806103ca8339810160408190526100229161023c565b61002c8282610033565b505061031b565b61003c82610091565b6040516001600160a01b038316907fbc7cd75a20ee27fd9adebab32041f755214dbc6bffa90cc0225b39da2e5c2d3b905f90a280511561008557610080828261010c565b505050565b61008d61017f565b5050565b806001600160a01b03163b5f036100cb57604051634c9c8ce360e01b81526001600160a01b03821660048201526024015b60405180910390fd5b7f360894a13ba1a3210667c828492db98dca3e2076cc3735a920a3ca505d382bbc80546001600160a01b0319166001600160a01b0392909216919091179055565b60605f80846001600160a01b0316846040516101289190610305565b5f60405180830381855af49150503d805f8114610160576040519150601f19603f3d011682016040523d82523d5f602084013e610165565b606091505b5090925090506101768583836101a0565b95945050505050565b341561019e5760405163b398979f60e01b815260040160405180910390fd5b565b6060826101b5576101b0826101ff565b6101f8565b81511580156101cc57506001600160a01b0384163b155b156101f557604051639996b31560e01b81526001600160a01b03851660048201526024016100c2565b50805b9392505050565b80511561020f5780518082602001fd5b604051630a12f52160e11b815260040160405180910390fd5b634e487b7160e01b5f52604160045260245ffd5b5f806040838503121561024d575f80fd5b82516001600160a01b0381168114610263575f80fd5b60208401519092506001600160401b038082111561027f575f80fd5b818501915085601f830112610292575f80fd5b8151818111156102a4576102a4610228565b604051601f8201601f19908116603f011681019083821181831017156102cc576102cc610228565b816040528281528860208487010111156102e4575f80fd5b8260208601602083015e5f6020848301015280955050505050509250929050565b5f82518060208501845e5f920191825250919050565b60a3806103275f395ff3fe6080604052600a600c565b005b60186014601a565b6050565b565b5f604b7f360894a13ba1a3210667c828492db98dca3e2076cc3735a920a3ca505d382bbc546001600160a01b031690565b905090565b365f80375f80365f845af43d5f803e8080156069573d5ff35b3d5ffdfea26469706673582212207f7db346caf70a88bc37e525734b2a71995b09b863bc62be3bf35a7f6e4de06364736f6c63430008190033a2646970667358221220e9b02b32e16f88e8df818262ce7f8f04a19cc9fbf8edd4c96c39c3b91444a25a64736f6c63430008190033610120604052348015610010575f80fd5b50604051611bd5380380611bd583398101604081905261002f91610077565b6001600160a01b0394851660a052928416608052831660e05290911660c0526001600160401b0316610100526100f3565b6001600160a01b0381168114610074575f80fd5b50565b5f805f805f60a0868803121561008b575f80fd5b855161009681610060565b60208701519095506100a781610060565b60408701519094506100b881610060565b60608701519093506100c981610060565b60808701519092506001600160401b03811681146100e5575f80fd5b809150509295509295909350565b60805160a05160c05160e05161010051611a6661016f5f395f610faa01525f610f7c01525f8181610be30152610c8701525f81816101b40152818161033d01528181610415015281816105360152818161078601528181610886015261092301525f81816102050152818161056a01526107ba0152611a665ff3fe60806040526004361061009d575f3560e01c8063a6a1d97d11610062578063a6a1d97d14610159578063aac878eb14610187578063b0d691fe146101a6578063b61d27f6146101d8578063c5c03699146101f7578063d087d28814610229575f80fd5b80631794bb3c146100a857806319822f7c146100c9578063452a9320146100fb5780634a58db19146101325780638da5cb5b1461013a575f80fd5b366100a457005b5f80fd5b3480156100b3575f80fd5b506100c76100c2366004611395565b61023d565b005b3480156100d4575f80fd5b506100e86100e33660046113d3565b6103db565b6040519081526020015b60405180910390f35b348015610106575f80fd5b5060035461011a906001600160a01b031681565b6040516001600160a01b0390911681526020016100f2565b6100c7610400565b348015610145575f80fd5b5060025461011a906001600160a01b031681565b348015610164575f80fd5b50610178610173366004611422565b610479565b6040516100f293929190611467565b348015610192575f80fd5b506100c76101a13660046114db565b61052b565b3480156101b1575f80fd5b507f000000000000000000000000000000000000000000000000000000000000000061011a565b3480156101e3575f80fd5b506100c76101f2366004611523565b61077b565b348015610202575f80fd5b507f000000000000000000000000000000000000000000000000000000000000000061011a565b348015610234575f80fd5b506100e8610883565b7ff0c57e16840df040f15088dc2f81fe391c3923bec73e23a9662efc9c229c6a008054600160401b810460ff16159067ffffffffffffffff165f811580156102825750825b90505f8267ffffffffffffffff16600114801561029e5750303b155b9050811580156102ac575080155b156102ca5760405163f92ee8a960e01b815260040160405180910390fd5b845467ffffffffffffffff1916600117855583156102f457845460ff60401b1916600160401b1785555b600280546001600160a01b038a81166001600160a01b03199283168117909355600380548b831693168317905560018990556040805193845260208401929092529082018890527f000000000000000000000000000000000000000000000000000000000000000016907f8da297ee856c2f10e3f82b6dc5d5520f9ef5459cef294486a405acc631dbd0289060600160405180910390a283156103d157845460ff60401b19168555604051600181527fc7f505b2f371ae2175ee4913f4499e1f2633a7b5936321eed1cdaeb6115181d29060200160405180910390a15b5050505050505050565b5f6103e4610918565b6103ee8484610997565b90506103f982610a0e565b9392505050565b60405163b760faf960e01b81523060048201527f00000000000000000000000000000000000000000000000000000000000000006001600160a01b03169063b760faf99034906024015f604051808303818588803b158015610460575f80fd5b505af1158015610472573d5f803e3d5ffd5b5050505050565b60056020525f90815260409020805460018201546002830180546001600160a01b039093169391926104aa9061157b565b80601f01602080910402602001604051908101604052809291908181526020018280546104d69061157b565b80156105215780601f106104f857610100808354040283529160200191610521565b820191905f5260205f20905b81548152906001019060200180831161050457829003601f168201915b5050505050905083565b336001600160a01b037f0000000000000000000000000000000000000000000000000000000000000000161480159061058d5750336001600160a01b037f00000000000000000000000000000000000000000000000000000000000000001614155b156105ab57604051631fea9fb360e11b815260040160405180910390fd5b5f838152600560209081526040808320815160608101835281546001600160a01b0316815260018201549381019390935260028101805491928401916105f09061157b565b80601f016020809104026020016040519081016040528092919081815260200182805461061c9061157b565b80156106675780601f1061063e57610100808354040283529160200191610667565b820191905f5260205f20905b81548152906001019060200180831161064a57829003601f168201915b50505050508152505090508060400151515f0361069757604051637f45175960e01b815260040160405180910390fd5b5f6106f4826040516020016106ac91906115b3565b604051602081830303815290604052805190602001207f19457468657265756d205369676e6564204d6573736167653a0a3332000000005f908152601c91909152603c902090565b905061073784848080601f0160208091040260200160405190810160405280939291908181526020018383808284375f920191909152508593925050610a579050565b6003546001600160a01b03908116911614610765576040516360b3cc6d60e01b815260040160405180910390fd5b610472825f015183602001518460400151610a7f565b336001600160a01b037f000000000000000000000000000000000000000000000000000000000000000016148015906107dd5750336001600160a01b037f00000000000000000000000000000000000000000000000000000000000000001614155b156107fb57604051631fea9fb360e11b815260040160405180910390fd5b5f61083c858585858080601f0160208091040260200160405190810160405280939291908181526020018383808284375f92019190915250610aeb92505050565b90508061047257610472858585858080601f0160208091040260200160405190810160405280939291908181526020018383808284375f92019190915250610a7f92505050565b5f7f0000000000000000000000000000000000000000000000000000000000000000604051631aab3f0d60e11b81523060048201525f60248201526001600160a01b0391909116906335567e1a90604401602060405180830381865afa1580156108ef573d5f803e3d5ffd5b505050506040513d601f19601f8201168201806040525081019061091391906115e9565b905090565b336001600160a01b037f000000000000000000000000000000000000000000000000000000000000000016146109955760405162461bcd60e51b815260206004820152601c60248201527f6163636f756e743a206e6f742066726f6d20456e747279506f696e740000000060448201526064015b60405180910390fd5b565b5f6109e56109a9610100850185611600565b8080601f0160208091040260200160405190810160405280939291908181526020018383808284375f920191909152508693925050610a579050565b6002546001600160a01b03918216911603610a0157505f610a05565b5060015b92915050565b50565b8015610a0b576040515f9033905f1990849084818181858888f193505050503d805f8114610472576040519150601f19603f3d011682016040523d82523d5f602084013e610472565b5f805f80610a658686611024565b925092509250610a75828261106d565b5090949350505050565b5f80846001600160a01b03168484604051610a9a9190611643565b5f6040518083038185875af1925050503d805f8114610ad4576040519150601f19603f3d011682016040523d82523d5f602084013e610ad9565b606091505b50915091508161047257805160208201fd5b6040805160018082528183019092525f918291829182918291816020015b6060815260200190600190039081610b09579050509050610b2933611129565b815f81518110610b3b57610b3b61166d565b6020026020010181905250602086015193507fa9059cbb2ab09eb219583f4a59a5d0623ade346d962bcd4e46b11da047c9049b6001600160e01b031916846001600160e01b03191614158015610ba257506001600160e01b0319841663095ea7b360e01b14155b15610bb3575f9450505050506103f9565b604486015160048054604051632fba4aa960e01b81526001600160a01b038c8116938201939093529294508116917f000000000000000000000000000000000000000000000000000000000000000090911690632fba4aa990602401602060405180830381865afa158015610c2a573d5f803e3d5ffd5b505050506040513d601f19601f82011682018060405250810190610c4e9190611681565b6001600160a01b031603610c68575f9450505050506103f9565b604051632fba4aa960e01b81526001600160a01b0389811660048301527f00000000000000000000000000000000000000000000000000000000000000001690632fba4aa990602401602060405180830381865afa158015610ccc573d5f803e3d5ffd5b505050506040513d601f19601f82011682018060405250810190610cf09190611681565b600680546001600160a01b0319166001600160a01b0392909216918217905560408051633fabe5a360e21b8152905163feaf968c9160048082019260a0929091908290030181865afa925050508015610d66575060408051601f3d908101601f19168201909252610d63918101906116ba565b60015b610db2576040516001600160a01b03891681527f9f699c4ef24e635ab1a27d63998e97a4fc9dc9c14e688748e408fe3a1dbe2ce79060200160405180910390a15f9450505050506103f9565b509195505050505f886001600160a01b031663313ce5676040518163ffffffff1660e01b8152600401602060405180830381865afa158015610df6573d5f803e3d5ffd5b505050506040513d601f19601f82011682018060405250810190610e1a9190611706565b905060015460065f9054906101000a90046001600160a01b03166001600160a01b031663313ce5676040518163ffffffff1660e01b8152600401602060405180830381865afa158015610e6f573d5f803e3d5ffd5b505050506040513d601f19601f82011682018060405250810190610e939190611706565b610e9d908361173a565b610ea890600a611833565b610eb28686611841565b610ebc9190611858565b1015610ecf575f955050505050506103f9565b5f805460010180825560405190917fb71f3976251bfdfd5fce9ed40bf83791ffe21bf1de65e7ff154f85a9a9824bc291a2604080516060810182526001600160a01b038b8116825260208083018c81528385018c81525f80548152600590935294909120835181546001600160a01b031916931692909217825551600182015591519091906002820190610f6390826118c0565b50506040516348a7d26d60e01b81526001600160a01b037f00000000000000000000000000000000000000000000000000000000000000001691506348a7d26d90610fd4907f0000000000000000000000000000000000000000000000000000000000000000908690600401611980565b6020604051808303815f875af1158015610ff0573d5f803e3d5ffd5b505050506040513d601f19601f8201168201806040525081019061101491906115e9565b5060019998505050505050505050565b5f805f835160410361105b576020840151604085015160608601515f1a61104d8882858561113f565b955095509550505050611066565b505081515f91506002905b9250925092565b5f826003811115611080576110806119f4565b03611089575050565b600182600381111561109d5761109d6119f4565b036110bb5760405163f645eedf60e01b815260040160405180910390fd5b60028260038111156110cf576110cf6119f4565b036110f05760405163fce698f760e01b81526004810182905260240161098c565b6003826003811115611104576111046119f4565b03611125576040516335e2f38360e21b81526004810182905260240161098c565b5050565b6060610a056001600160a01b0383166014611207565b5f80807f7fffffffffffffffffffffffffffffff5d576e7357a4501ddfe92f46681b20a084111561117857505f915060039050826111fd565b604080515f808252602082018084528a905260ff891692820192909252606081018790526080810186905260019060a0016020604051602081039080840390855afa1580156111c9573d5f803e3d5ffd5b5050604051601f1901519150506001600160a01b0381166111f457505f9250600191508290506111fd565b92505f91508190505b9450945094915050565b6060825f611216846002611841565b611221906002611a08565b67ffffffffffffffff81111561123957611239611659565b6040519080825280601f01601f191660200182016040528015611263576020820181803683370190505b509050600360fc1b815f8151811061127d5761127d61166d565b60200101906001600160f81b03191690815f1a905350600f60fb1b816001815181106112ab576112ab61166d565b60200101906001600160f81b03191690815f1a9053505f6112cd856002611841565b6112d8906001611a08565b90505b600181111561134f576f181899199a1a9b1b9c1cb0b131b232b360811b83600f166010811061130c5761130c61166d565b1a60f81b8282815181106113225761132261166d565b60200101906001600160f81b03191690815f1a90535060049290921c9161134881611a1b565b90506112db565b5081156113795760405163e22e27eb60e01b8152600481018690526024810185905260440161098c565b949350505050565b6001600160a01b0381168114610a0b575f80fd5b5f805f606084860312156113a7575f80fd5b83356113b281611381565b925060208401356113c281611381565b929592945050506040919091013590565b5f805f606084860312156113e5575f80fd5b833567ffffffffffffffff8111156113fb575f80fd5b8401610120818703121561140d575f80fd5b95602085013595506040909401359392505050565b5f60208284031215611432575f80fd5b5035919050565b5f81518084528060208401602086015e5f602082860101526020601f19601f83011685010191505092915050565b60018060a01b0384168152826020820152606060408201525f61148d6060830184611439565b95945050505050565b5f8083601f8401126114a6575f80fd5b50813567ffffffffffffffff8111156114bd575f80fd5b6020830191508360208285010111156114d4575f80fd5b9250929050565b5f805f604084860312156114ed575f80fd5b83359250602084013567ffffffffffffffff81111561150a575f80fd5b61151686828701611496565b9497909650939450505050565b5f805f8060608587031215611536575f80fd5b843561154181611381565b935060208501359250604085013567ffffffffffffffff811115611563575f80fd5b61156f87828801611496565b95989497509550505050565b600181811c9082168061158f57607f821691505b6020821081036115ad57634e487b7160e01b5f52602260045260245ffd5b50919050565b6020815260018060a01b038251166020820152602082015160408201525f60408301516060808401526113796080840182611439565b5f602082840312156115f9575f80fd5b5051919050565b5f808335601e19843603018112611615575f80fd5b83018035915067ffffffffffffffff82111561162f575f80fd5b6020019150368190038213156114d4575f80fd5b5f82518060208501845e5f920191825250919050565b634e487b7160e01b5f52604160045260245ffd5b634e487b7160e01b5f52603260045260245ffd5b5f60208284031215611691575f80fd5b81516103f981611381565b805169ffffffffffffffffffff811681146116b5575f80fd5b919050565b5f805f805f60a086880312156116ce575f80fd5b6116d78661169c565b94506020860151935060408601519250606086015191506116fa6080870161169c565b90509295509295909350565b5f60208284031215611716575f80fd5b815160ff811681146103f9575f80fd5b634e487b7160e01b5f52601160045260245ffd5b60ff8181168382160190811115610a0557610a05611726565b600181815b8085111561178d57815f190482111561177357611773611726565b8085161561178057918102915b93841c9390800290611758565b509250929050565b5f826117a357506001610a05565b816117af57505f610a05565b81600181146117c557600281146117cf576117eb565b6001915050610a05565b60ff8411156117e0576117e0611726565b50506001821b610a05565b5060208310610133831016604e8410600b841016171561180e575081810a610a05565b6118188383611753565b805f190482111561182b5761182b611726565b029392505050565b5f6103f960ff841683611795565b8082028115828204841417610a0557610a05611726565b5f8261187257634e487b7160e01b5f52601260045260245ffd5b500490565b601f8211156118bb57805f5260205f20601f840160051c8101602085101561189c5750805b601f840160051c820191505b81811015610472575f81556001016118a8565b505050565b815167ffffffffffffffff8111156118da576118da611659565b6118ee816118e8845461157b565b84611877565b602080601f831160018114611921575f841561190a5750858301515b5f19600386901b1c1916600185901b178555611978565b5f85815260208120601f198616915b8281101561194f57888601518255948401946001909101908401611930565b508582101561196c57878501515f19600388901b60f8161c191681555b505060018460011b0185555b505050505050565b5f6040820167ffffffffffffffff8516835260206040602085015281855180845260608601915060608160051b8701019350602087015f5b828110156119e657605f198887030184526119d4868351611439565b955092840192908401906001016119b8565b509398975050505050505050565b634e487b7160e01b5f52602160045260245ffd5b80820180821115610a0557610a05611726565b5f81611a2957611a29611726565b505f19019056fea26469706673582212203d39dc76c5c008c73272ca4f6d32ad5c4337c3312f42ae261ce81c3b8c6190a464736f6c63430008190033000000000000000000000000cac30d6dc9beed0d31699c059ced50d0b8279aef0000000000000000000000000b7f332ecef4141b6eb314c96363e777d1ede2a4000000000000000000000000f99f35d284675d594cf0dda5c7b8979df947e1340000000000000000000000000000000000000000000000000000000000000ac8",
        "nonce": "0xe7",
        "chainId": "0xaa36a7"
      },
      "additionalContracts": [
        {
          "transactionType": "CREATE",
          "address": "0xe75cdaef0a4812bc557b9882622e7d5c8a248156",
          "initCode": "0x610120604052348015610010575f80fd5b50604051611bd5380380611bd583398101604081905261002f91610077565b6001600160a01b0394851660a052928416608052831660e05290911660c0526001600160401b0316610100526100f3565b6001600160a01b0381168114610074575f80fd5b50565b5f805f805f60a0868803121561008b575f80fd5b855161009681610060565b60208701519095506100a781610060565b60408701519094506100b881610060565b60608701519093506100c981610060565b60808701519092506001600160401b03811681146100e5575f80fd5b809150509295509295909350565b60805160a05160c05160e05161010051611a6661016f5f395f610faa01525f610f7c01525f8181610be30152610c8701525f81816101b40152818161033d01528181610415015281816105360152818161078601528181610886015261092301525f81816102050152818161056a01526107ba0152611a665ff3fe60806040526004361061009d575f3560e01c8063a6a1d97d11610062578063a6a1d97d14610159578063aac878eb14610187578063b0d691fe146101a6578063b61d27f6146101d8578063c5c03699146101f7578063d087d28814610229575f80fd5b80631794bb3c146100a857806319822f7c146100c9578063452a9320146100fb5780634a58db19146101325780638da5cb5b1461013a575f80fd5b366100a457005b5f80fd5b3480156100b3575f80fd5b506100c76100c2366004611395565b61023d565b005b3480156100d4575f80fd5b506100e86100e33660046113d3565b6103db565b6040519081526020015b60405180910390f35b348015610106575f80fd5b5060035461011a906001600160a01b031681565b6040516001600160a01b0390911681526020016100f2565b6100c7610400565b348015610145575f80fd5b5060025461011a906001600160a01b031681565b348015610164575f80fd5b50610178610173366004611422565b610479565b6040516100f293929190611467565b348015610192575f80fd5b506100c76101a13660046114db565b61052b565b3480156101b1575f80fd5b507f000000000000000000000000000000000000000000000000000000000000000061011a565b3480156101e3575f80fd5b506100c76101f2366004611523565b61077b565b348015610202575f80fd5b507f000000000000000000000000000000000000000000000000000000000000000061011a565b348015610234575f80fd5b506100e8610883565b7ff0c57e16840df040f15088dc2f81fe391c3923bec73e23a9662efc9c229c6a008054600160401b810460ff16159067ffffffffffffffff165f811580156102825750825b90505f8267ffffffffffffffff16600114801561029e5750303b155b9050811580156102ac575080155b156102ca5760405163f92ee8a960e01b815260040160405180910390fd5b845467ffffffffffffffff1916600117855583156102f457845460ff60401b1916600160401b1785555b600280546001600160a01b038a81166001600160a01b03199283168117909355600380548b831693168317905560018990556040805193845260208401929092529082018890527f000000000000000000000000000000000000000000000000000000000000000016907f8da297ee856c2f10e3f82b6dc5d5520f9ef5459cef294486a405acc631dbd0289060600160405180910390a283156103d157845460ff60401b19168555604051600181527fc7f505b2f371ae2175ee4913f4499e1f2633a7b5936321eed1cdaeb6115181d29060200160405180910390a15b5050505050505050565b5f6103e4610918565b6103ee8484610997565b90506103f982610a0e565b9392505050565b60405163b760faf960e01b81523060048201527f00000000000000000000000000000000000000000000000000000000000000006001600160a01b03169063b760faf99034906024015f604051808303818588803b158015610460575f80fd5b505af1158015610472573d5f803e3d5ffd5b5050505050565b60056020525f90815260409020805460018201546002830180546001600160a01b039093169391926104aa9061157b565b80601f01602080910402602001604051908101604052809291908181526020018280546104d69061157b565b80156105215780601f106104f857610100808354040283529160200191610521565b820191905f5260205f20905b81548152906001019060200180831161050457829003601f168201915b5050505050905083565b336001600160a01b037f0000000000000000000000000000000000000000000000000000000000000000161480159061058d5750336001600160a01b037f00000000000000000000000000000000000000000000000000000000000000001614155b156105ab57604051631fea9fb360e11b815260040160405180910390fd5b5f838152600560209081526040808320815160608101835281546001600160a01b0316815260018201549381019390935260028101805491928401916105f09061157b565b80601f016020809104026020016040519081016040528092919081815260200182805461061c9061157b565b80156106675780601f1061063e57610100808354040283529160200191610667565b820191905f5260205f20905b81548152906001019060200180831161064a57829003601f168201915b50505050508152505090508060400151515f0361069757604051637f45175960e01b815260040160405180910390fd5b5f6106f4826040516020016106ac91906115b3565b604051602081830303815290604052805190602001207f19457468657265756d205369676e6564204d6573736167653a0a3332000000005f908152601c91909152603c902090565b905061073784848080601f0160208091040260200160405190810160405280939291908181526020018383808284375f920191909152508593925050610a579050565b6003546001600160a01b03908116911614610765576040516360b3cc6d60e01b815260040160405180910390fd5b610472825f015183602001518460400151610a7f565b336001600160a01b037f000000000000000000000000000000000000000000000000000000000000000016148015906107dd5750336001600160a01b037f00000000000000000000000000000000000000000000000000000000000000001614155b156107fb57604051631fea9fb360e11b815260040160405180910390fd5b5f61083c858585858080601f0160208091040260200160405190810160405280939291908181526020018383808284375f92019190915250610aeb92505050565b90508061047257610472858585858080601f0160208091040260200160405190810160405280939291908181526020018383808284375f92019190915250610a7f92505050565b5f7f0000000000000000000000000000000000000000000000000000000000000000604051631aab3f0d60e11b81523060048201525f60248201526001600160a01b0391909116906335567e1a90604401602060405180830381865afa1580156108ef573d5f803e3d5ffd5b505050506040513d601f19601f8201168201806040525081019061091391906115e9565b905090565b336001600160a01b037f000000000000000000000000000000000000000000000000000000000000000016146109955760405162461bcd60e51b815260206004820152601c60248201527f6163636f756e743a206e6f742066726f6d20456e747279506f696e740000000060448201526064015b60405180910390fd5b565b5f6109e56109a9610100850185611600565b8080601f0160208091040260200160405190810160405280939291908181526020018383808284375f920191909152508693925050610a579050565b6002546001600160a01b03918216911603610a0157505f610a05565b5060015b92915050565b50565b8015610a0b576040515f9033905f1990849084818181858888f193505050503d805f8114610472576040519150601f19603f3d011682016040523d82523d5f602084013e610472565b5f805f80610a658686611024565b925092509250610a75828261106d565b5090949350505050565b5f80846001600160a01b03168484604051610a9a9190611643565b5f6040518083038185875af1925050503d805f8114610ad4576040519150601f19603f3d011682016040523d82523d5f602084013e610ad9565b606091505b50915091508161047257805160208201fd5b6040805160018082528183019092525f918291829182918291816020015b6060815260200190600190039081610b09579050509050610b2933611129565b815f81518110610b3b57610b3b61166d565b6020026020010181905250602086015193507fa9059cbb2ab09eb219583f4a59a5d0623ade346d962bcd4e46b11da047c9049b6001600160e01b031916846001600160e01b03191614158015610ba257506001600160e01b0319841663095ea7b360e01b14155b15610bb3575f9450505050506103f9565b604486015160048054604051632fba4aa960e01b81526001600160a01b038c8116938201939093529294508116917f000000000000000000000000000000000000000000000000000000000000000090911690632fba4aa990602401602060405180830381865afa158015610c2a573d5f803e3d5ffd5b505050506040513d601f19601f82011682018060405250810190610c4e9190611681565b6001600160a01b031603610c68575f9450505050506103f9565b604051632fba4aa960e01b81526001600160a01b0389811660048301527f00000000000000000000000000000000000000000000000000000000000000001690632fba4aa990602401602060405180830381865afa158015610ccc573d5f803e3d5ffd5b505050506040513d601f19601f82011682018060405250810190610cf09190611681565b600680546001600160a01b0319166001600160a01b0392909216918217905560408051633fabe5a360e21b8152905163feaf968c9160048082019260a0929091908290030181865afa925050508015610d66575060408051601f3d908101601f19168201909252610d63918101906116ba565b60015b610db2576040516001600160a01b03891681527f9f699c4ef24e635ab1a27d63998e97a4fc9dc9c14e688748e408fe3a1dbe2ce79060200160405180910390a15f9450505050506103f9565b509195505050505f886001600160a01b031663313ce5676040518163ffffffff1660e01b8152600401602060405180830381865afa158015610df6573d5f803e3d5ffd5b505050506040513d601f19601f82011682018060405250810190610e1a9190611706565b905060015460065f9054906101000a90046001600160a01b03166001600160a01b031663313ce5676040518163ffffffff1660e01b8152600401602060405180830381865afa158015610e6f573d5f803e3d5ffd5b505050506040513d601f19601f82011682018060405250810190610e939190611706565b610e9d908361173a565b610ea890600a611833565b610eb28686611841565b610ebc9190611858565b1015610ecf575f955050505050506103f9565b5f805460010180825560405190917fb71f3976251bfdfd5fce9ed40bf83791ffe21bf1de65e7ff154f85a9a9824bc291a2604080516060810182526001600160a01b038b8116825260208083018c81528385018c81525f80548152600590935294909120835181546001600160a01b031916931692909217825551600182015591519091906002820190610f6390826118c0565b50506040516348a7d26d60e01b81526001600160a01b037f00000000000000000000000000000000000000000000000000000000000000001691506348a7d26d90610fd4907f0000000000000000000000000000000000000000000000000000000000000000908690600401611980565b6020604051808303815f875af1158015610ff0573d5f803e3d5ffd5b505050506040513d601f19601f8201168201806040525081019061101491906115e9565b5060019998505050505050505050565b5f805f835160410361105b576020840151604085015160608601515f1a61104d8882858561113f565b955095509550505050611066565b505081515f91506002905b9250925092565b5f826003811115611080576110806119f4565b03611089575050565b600182600381111561109d5761109d6119f4565b036110bb5760405163f645eedf60e01b815260040160405180910390fd5b60028260038111156110cf576110cf6119f4565b036110f05760405163fce698f760e01b81526004810182905260240161098c565b6003826003811115611104576111046119f4565b03611125576040516335e2f38360e21b81526004810182905260240161098c565b5050565b6060610a056001600160a01b0383166014611207565b5f80807f7fffffffffffffffffffffffffffffff5d576e7357a4501ddfe92f46681b20a084111561117857505f915060039050826111fd565b604080515f808252602082018084528a905260ff891692820192909252606081018790526080810186905260019060a0016020604051602081039080840390855afa1580156111c9573d5f803e3d5ffd5b5050604051601f1901519150506001600160a01b0381166111f457505f9250600191508290506111fd565b92505f91508190505b9450945094915050565b6060825f611216846002611841565b611221906002611a08565b67ffffffffffffffff81111561123957611239611659565b6040519080825280601f01601f191660200182016040528015611263576020820181803683370190505b509050600360fc1b815f8151811061127d5761127d61166d565b60200101906001600160f81b03191690815f1a905350600f60fb1b816001815181106112ab576112ab61166d565b60200101906001600160f81b03191690815f1a9053505f6112cd856002611841565b6112d8906001611a08565b90505b600181111561134f576f181899199a1a9b1b9c1cb0b131b232b360811b83600f166010811061130c5761130c61166d565b1a60f81b8282815181106113225761132261166d565b60200101906001600160f81b03191690815f1a90535060049290921c9161134881611a1b565b90506112db565b5081156113795760405163e22e27eb60e01b8152600481018690526024810185905260440161098c565b949350505050565b6001600160a01b0381168114610a0b575f80fd5b5f805f606084860312156113a7575f80fd5b83356113b281611381565b925060208401356113c281611381565b929592945050506040919091013590565b5f805f606084860312156113e5575f80fd5b833567ffffffffffffffff8111156113fb575f80fd5b8401610120818703121561140d575f80fd5b95602085013595506040909401359392505050565b5f60208284031215611432575f80fd5b5035919050565b5f81518084528060208401602086015e5f602082860101526020601f19601f83011685010191505092915050565b60018060a01b0384168152826020820152606060408201525f61148d6060830184611439565b95945050505050565b5f8083601f8401126114a6575f80fd5b50813567ffffffffffffffff8111156114bd575f80fd5b6020830191508360208285010111156114d4575f80fd5b9250929050565b5f805f604084860312156114ed575f80fd5b83359250602084013567ffffffffffffffff81111561150a575f80fd5b61151686828701611496565b9497909650939450505050565b5f805f8060608587031215611536575f80fd5b843561154181611381565b935060208501359250604085013567ffffffffffffffff811115611563575f80fd5b61156f87828801611496565b95989497509550505050565b600181811c9082168061158f57607f821691505b6020821081036115ad57634e487b7160e01b5f52602260045260245ffd5b50919050565b6020815260018060a01b038251166020820152602082015160408201525f60408301516060808401526113796080840182611439565b5f602082840312156115f9575f80fd5b5051919050565b5f808335601e19843603018112611615575f80fd5b83018035915067ffffffffffffffff82111561162f575f80fd5b6020019150368190038213156114d4575f80fd5b5f82518060208501845e5f920191825250919050565b634e487b7160e01b5f52604160045260245ffd5b634e487b7160e01b5f52603260045260245ffd5b5f60208284031215611691575f80fd5b81516103f981611381565b805169ffffffffffffffffffff811681146116b5575f80fd5b919050565b5f805f805f60a086880312156116ce575f80fd5b6116d78661169c565b94506020860151935060408601519250606086015191506116fa6080870161169c565b90509295509295909350565b5f60208284031215611716575f80fd5b815160ff811681146103f9575f80fd5b634e487b7160e01b5f52601160045260245ffd5b60ff8181168382160190811115610a0557610a05611726565b600181815b8085111561178d57815f190482111561177357611773611726565b8085161561178057918102915b93841c9390800290611758565b509250929050565b5f826117a357506001610a05565b816117af57505f610a05565b81600181146117c557600281146117cf576117eb565b6001915050610a05565b60ff8411156117e0576117e0611726565b50506001821b610a05565b5060208310610133831016604e8410600b841016171561180e575081810a610a05565b6118188383611753565b805f190482111561182b5761182b611726565b029392505050565b5f6103f960ff841683611795565b8082028115828204841417610a0557610a05611726565b5f8261187257634e487b7160e01b5f52601260045260245ffd5b500490565b601f8211156118bb57805f5260205f20601f840160051c8101602085101561189c5750805b601f840160051c820191505b81811015610472575f81556001016118a8565b505050565b815167ffffffffffffffff8111156118da576118da611659565b6118ee816118e8845461157b565b84611877565b602080601f831160018114611921575f841561190a5750858301515b5f19600386901b1c1916600185901b178555611978565b5f85815260208120601f198616915b8281101561194f57888601518255948401946001909101908401611930565b508582101561196c57878501515f19600388901b60f8161c191681555b505060018460011b0185555b505050505050565b5f6040820167ffffffffffffffff8516835260206040602085015281855180845260608601915060608160051b8701019350602087015f5b828110156119e657605f198887030184526119d4868351611439565b955092840192908401906001016119b8565b509398975050505050505050565b634e487b7160e01b5f52602160045260245ffd5b80820180821115610a0557610a05611726565b5f81611a2957611a29611726565b505f19019056fea26469706673582212203d39dc76c5c008c73272ca4f6d32ad5c4337c3312f42ae261ce81c3b8c6190a464736f6c63430008190033000000000000000000000000cac30d6dc9beed0d31699c059ced50d0b8279aef000000000000000000000000ae07f2b3168279f9ec68ae25d680cd5e3b96d21c0000000000000000000000000b7f332ecef4141b6eb314c96363e777d1ede2a4000000000000000000000000f99f35d284675d594cf0dda5c7b8979df947e1340000000000000000000000000000000000000000000000000000000000000ac8"
        }
      ],
      "isFixedGasLimit": false
    },
    {
      "hash": "0x8344c7967f2fdb9159f0b9175a9874a30241b5be935a736da8b20b77d56cfa71",
      "transactionType": "CALL",
      "contractName": null,
      "contractAddress": "0xf99f35d284675d594cf0dda5c7b8979df947e134",
      "function": "setWalletFactoryAddress(address)",
      "arguments": [
        "0xAE07F2b3168279F9ec68Ae25D680Cd5e3b96d21C"
      ],
      "transaction": {
        "from": "0xeba32c7eadc77e27efe143a4791facf3d8e4d264",
        "to": "0xf99f35d284675d594cf0dda5c7b8979df947e134",
        "gas": "0x9101",
        "value": "0x0",
        "input": "0xd1da6f63000000000000000000000000ae07f2b3168279f9ec68ae25d680cd5e3b96d21c",
        "nonce": "0xe8",
        "chainId": "0xaa36a7"
      },
      "additionalContracts": [],
      "isFixedGasLimit": false
    },
    {
      "hash": "0x2d114a95a77f1643ac6c9152ff174b34121ca01fa7658cd09dd930be932bc79d",
      "transactionType": "CALL",
      "contractName": null,
      "contractAddress": "0xcac30d6dc9beed0d31699c059ced50d0b8279aef",
      "function": "depositTo(address)",
      "arguments": [
        "0x9761A27801716E0e7c889A9a364f2fAA2354ff79"
      ],
      "transaction": {
        "from": "0xeba32c7eadc77e27efe143a4791facf3d8e4d264",
        "to": "0xcac30d6dc9beed0d31699c059ced50d0b8279aef",
        "gas": "0xf5ac",
        "value": "0x16345785d8a0000",
        "input": "0xb760faf90000000000000000000000009761a27801716e0e7c889a9a364f2faa2354ff79",
        "nonce": "0xe9",
        "chainId": "0xaa36a7"
      },
      "additionalContracts": [],
      "isFixedGasLimit": false
    },
    {
      "hash": "0x72bcbaad91eb1fd9df4d1c96c439f754020e5df7bccd790ec3d857be55cc9b8b",
      "transactionType": "CALL",
      "contractName": null,
      "contractAddress": "0xcac30d6dc9beed0d31699c059ced50d0b8279aef",
      "function": "handleOps((address,uint256,bytes,bytes,bytes32,uint256,bytes32,bytes,bytes)[],address)",
      "arguments": [
        "[(0x9761A27801716E0e7c889A9a364f2fAA2354ff79, 0, 0xae07f2b3168279f9ec68ae25d680cd5e3b96d21c55af67d8000000000000000000000000eba32c7eadc77e27efe143a4791facf3d8e4d264000000000000000000000000fd7736371d52725527294844b95aa92bbd4b872400000000000000000000000000000000000000000000000000000000000030230000000000000000000000000000000000000000000000000000000000000002, 0x, 0x000000000000000000000000000f4240000000000000000000000000000f4240, 500000, 0x0000000000000000000000000000000200000000000000000000000000000002, 0x, 0xbf9866fab53cbd905633f60000066d512a27959426903870648924b312e9dbcd7516f9e033dd8b41583717336fbb291a85af838a978a20fdff5f5e413cbcf4661b)]",
        "0x9761A27801716E0e7c889A9a364f2fAA2354ff79"
      ],
      "transaction": {
        "from": "0xeba32c7eadc77e27efe143a4791facf3d8e4d264",
        "to": "0xcac30d6dc9beed0d31699c059ced50d0b8279aef",
        "gas": "0x989680",
        "value": "0x0",
        "input": "0x765e827f00000000000000000000000000000000000000000000000000000000000000400000000000000000000000009761a27801716e0e7c889a9a364f2faa2354ff79000000000000000000000000000000000000000000000000000000000000000100000000000000000000000000000000000000000000000000000000000000200000000000000000000000009761a27801716e0e7c889a9a364f2faa2354ff790000000000000000000000000000000000000000000000000000000000000000000000000000000000000000000000000000000000000000000000000000012000000000000000000000000000000000000000000000000000000000000001e0000000000000000000000000000f4240000000000000000000000000000f4240000000000000000000000000000000000000000000000000000000000007a1200000000000000000000000000000000200000000000000000000000000000002000000000000000000000000000000000000000000000000000000000000020000000000000000000000000000000000000000000000000000000000000002200000000000000000000000000000000000000000000000000000000000000098ae07f2b3168279f9ec68ae25d680cd5e3b96d21c55af67d8000000000000000000000000eba32c7eadc77e27efe143a4791facf3d8e4d264000000000000000000000000fd7736371d52725527294844b95aa92bbd4b8724000000000000000000000000000000000000000000000000000000000000302300000000000000000000000000000000000000000000000000000000000000020000000000000000000000000000000000000000000000000000000000000000000000000000000000000000000000000000000000000000000000000000000000000000000000000000000000000000000000000000000000000000000000000000000000000041bf9866fab53cbd905633f60000066d512a27959426903870648924b312e9dbcd7516f9e033dd8b41583717336fbb291a85af838a978a20fdff5f5e413cbcf4661b00000000000000000000000000000000000000000000000000000000000000",
        "nonce": "0xea",
        "chainId": "0xaa36a7"
      },
      "additionalContracts": [
        {
          "transactionType": "CREATE2",
          "address": "0x9761a27801716e0e7c889a9a364f2faa2354ff79",
          "initCode": "0x60806040526040516103ca3803806103ca8339810160408190526100229161023c565b61002c8282610033565b505061031b565b61003c82610091565b6040516001600160a01b038316907fbc7cd75a20ee27fd9adebab32041f755214dbc6bffa90cc0225b39da2e5c2d3b905f90a280511561008557610080828261010c565b505050565b61008d61017f565b5050565b806001600160a01b03163b5f036100cb57604051634c9c8ce360e01b81526001600160a01b03821660048201526024015b60405180910390fd5b7f360894a13ba1a3210667c828492db98dca3e2076cc3735a920a3ca505d382bbc80546001600160a01b0319166001600160a01b0392909216919091179055565b60605f80846001600160a01b0316846040516101289190610305565b5f60405180830381855af49150503d805f8114610160576040519150601f19603f3d011682016040523d82523d5f602084013e610165565b606091505b5090925090506101768583836101a0565b95945050505050565b341561019e5760405163b398979f60e01b815260040160405180910390fd5b565b6060826101b5576101b0826101ff565b6101f8565b81511580156101cc57506001600160a01b0384163b155b156101f557604051639996b31560e01b81526001600160a01b03851660048201526024016100c2565b50805b9392505050565b80511561020f5780518082602001fd5b604051630a12f52160e11b815260040160405180910390fd5b634e487b7160e01b5f52604160045260245ffd5b5f806040838503121561024d575f80fd5b82516001600160a01b0381168114610263575f80fd5b60208401519092506001600160401b038082111561027f575f80fd5b818501915085601f830112610292575f80fd5b8151818111156102a4576102a4610228565b604051601f8201601f19908116603f011681019083821181831017156102cc576102cc610228565b816040528281528860208487010111156102e4575f80fd5b8260208601602083015e5f6020848301015280955050505050509250929050565b5f82518060208501845e5f920191825250919050565b60a3806103275f395ff3fe6080604052600a600c565b005b60186014601a565b6050565b565b5f604b7f360894a13ba1a3210667c828492db98dca3e2076cc3735a920a3ca505d382bbc546001600160a01b031690565b905090565b365f80375f80365f845af43d5f803e8080156069573d5ff35b3d5ffdfea26469706673582212207f7db346caf70a88bc37e525734b2a71995b09b863bc62be3bf35a7f6e4de06364736f6c63430008190033000000000000000000000000e75cdaef0a4812bc557b9882622e7d5c8a248156000000000000000000000000000000000000000000000000000000000000004000000000000000000000000000000000000000000000000000000000000000641794bb3c000000000000000000000000eba32c7eadc77e27efe143a4791facf3d8e4d264000000000000000000000000fd7736371d52725527294844b95aa92bbd4b8724000000000000000000000000000000000000000000000000000000000000000200000000000000000000000000000000000000000000000000000000"
        }
      ],
      "isFixedGasLimit": true
    },
    {
      "hash": "0x785edef6b805133f569c7820a4604103c0f06d2783c91e87eb1f6d52a3caac54",
      "transactionType": "CALL",
      "contractName": null,
      "contractAddress": "0x779877a7b0d9e8603169ddbd7836e478b4624789",
      "function": "transfer(address,uint256)",
      "arguments": [
        "0x9761A27801716E0e7c889A9a364f2fAA2354ff79",
        "2000000000000000000"
      ],
      "transaction": {
        "from": "0xeba32c7eadc77e27efe143a4791facf3d8e4d264",
        "to": "0x779877a7b0d9e8603169ddbd7836e478b4624789",
        "gas": "0x1271d",
        "value": "0x0",
        "input": "0xa9059cbb0000000000000000000000009761a27801716e0e7c889a9a364f2faa2354ff790000000000000000000000000000000000000000000000001bc16d674ec80000",
        "nonce": "0xeb",
        "chainId": "0xaa36a7"
      },
      "additionalContracts": [],
      "isFixedGasLimit": false
    },
    {
      "hash": "0xa5a3df49a18b4df66ee7e67340748a6df34f7bdf303ab4083b524079c7f8bd0a",
      "transactionType": "CALL",
      "contractName": null,
      "contractAddress": "0xcac30d6dc9beed0d31699c059ced50d0b8279aef",
      "function": "depositTo(address)",
      "arguments": [
        "0x9761A27801716E0e7c889A9a364f2fAA2354ff79"
      ],
      "transaction": {
        "from": "0xeba32c7eadc77e27efe143a4791facf3d8e4d264",
        "to": "0xcac30d6dc9beed0d31699c059ced50d0b8279aef",
        "gas": "0xa270",
        "value": "0x16345785d8a0000",
        "input": "0xb760faf90000000000000000000000009761a27801716e0e7c889a9a364f2faa2354ff79",
        "nonce": "0xec",
        "chainId": "0xaa36a7"
      },
      "additionalContracts": [],
      "isFixedGasLimit": false
    },
    {
      "hash": "0xd9512dfcf984ba509c8fb4c1ba296e50a9ba9de9442dc1ad6d7c2cf1b2f24636",
      "transactionType": "CALL",
      "contractName": null,
      "contractAddress": "0xcac30d6dc9beed0d31699c059ced50d0b8279aef",
      "function": "handleOps((address,uint256,bytes,bytes,bytes32,uint256,bytes32,bytes,bytes)[],address)",
      "arguments": [
        "[(0x9761A27801716E0e7c889A9a364f2fAA2354ff79, 1, 0x, 0xb61d27f6000000000000000000000000779877a7b0d9e8603169ddbd7836e478b4624789000000000000000000000000000000000000000000000000000000000000000000000000000000000000000000000000000000000000000000000000000000600000000000000000000000000000000000000000000000000000000000000044a9059cbb000000000000000000000000fd7736371d52725527294844b95aa92bbd4b87240000000000000000000000000000000000000000000000000de0b6b3a764000000000000000000000000000000000000000000000000000000000000, 0x000000000000000000000000000f4240000000000000000000000000000f4240, 500000, 0x0000000000000000000000000000000200000000000000000000000000000002, 0x, 0x49306ccf96803927ff3caad43d8b082c7c2a4cb69450be38465b68de8724a5f24f396f896d448f4623b56c75b2f60272e0535684d6d28e7473f8b2de3071431b1b)]",
        "0x9761A27801716E0e7c889A9a364f2fAA2354ff79"
      ],
      "transaction": {
        "from": "0xeba32c7eadc77e27efe143a4791facf3d8e4d264",
        "to": "0xcac30d6dc9beed0d31699c059ced50d0b8279aef",
        "gas": "0x989680",
        "value": "0x0",
        "input": "0x765e827f00000000000000000000000000000000000000000000000000000000000000400000000000000000000000009761a27801716e0e7c889a9a364f2faa2354ff79000000000000000000000000000000000000000000000000000000000000000100000000000000000000000000000000000000000000000000000000000000200000000000000000000000009761a27801716e0e7c889a9a364f2faa2354ff79000000000000000000000000000000000000000000000000000000000000000100000000000000000000000000000000000000000000000000000000000001200000000000000000000000000000000000000000000000000000000000000140000000000000000000000000000f4240000000000000000000000000000f4240000000000000000000000000000000000000000000000000000000000007a120000000000000000000000000000000020000000000000000000000000000000200000000000000000000000000000000000000000000000000000000000002600000000000000000000000000000000000000000000000000000000000000280000000000000000000000000000000000000000000000000000000000000000000000000000000000000000000000000000000000000000000000000000000e4b61d27f6000000000000000000000000779877a7b0d9e8603169ddbd7836e478b4624789000000000000000000000000000000000000000000000000000000000000000000000000000000000000000000000000000000000000000000000000000000600000000000000000000000000000000000000000000000000000000000000044a9059cbb000000000000000000000000fd7736371d52725527294844b95aa92bbd4b87240000000000000000000000000000000000000000000000000de0b6b3a764000000000000000000000000000000000000000000000000000000000000000000000000000000000000000000000000000000000000000000000000000000000000000000000000000000000000000000000000000000000000000000000000000000000000000000000000000000000000000000000000004149306ccf96803927ff3caad43d8b082c7c2a4cb69450be38465b68de8724a5f24f396f896d448f4623b56c75b2f60272e0535684d6d28e7473f8b2de3071431b1b00000000000000000000000000000000000000000000000000000000000000",
        "nonce": "0xed",
        "chainId": "0xaa36a7"
      },
      "additionalContracts": [],
      "isFixedGasLimit": true
    },
    {
      "hash": "0x8d9fd69fa238571f0db3dc4011a3a990517a611e38f76362aa1eeb7f60475675",
      "transactionType": "CALL",
      "contractName": null,
      "contractAddress": "0xcac30d6dc9beed0d31699c059ced50d0b8279aef",
      "function": "depositTo(address)",
      "arguments": [
        "0x9761A27801716E0e7c889A9a364f2fAA2354ff79"
      ],
      "transaction": {
        "from": "0xeba32c7eadc77e27efe143a4791facf3d8e4d264",
        "to": "0xcac30d6dc9beed0d31699c059ced50d0b8279aef",
        "gas": "0xa270",
        "value": "0x16345785d8a0000",
        "input": "0xb760faf90000000000000000000000009761a27801716e0e7c889a9a364f2faa2354ff79",
        "nonce": "0xee",
        "chainId": "0xaa36a7"
      },
      "additionalContracts": [],
      "isFixedGasLimit": false
    },
    {
      "hash": "0x147089a947b9ac3748bc740d335401b5a61bb5238cd9b173819bab3167119ab2",
      "transactionType": "CALL",
      "contractName": null,
      "contractAddress": "0xcac30d6dc9beed0d31699c059ced50d0b8279aef",
      "function": "handleOps((address,uint256,bytes,bytes,bytes32,uint256,bytes32,bytes,bytes)[],address)",
      "arguments": [
        "[(0x9761A27801716E0e7c889A9a364f2fAA2354ff79, 2, 0x, 0xaac878eb000000000000000000000000000000000000000000000000000000000000000100000000000000000000000000000000000000000000000000000000000000400000000000000000000000000000000000000000000000000000000000000041eb6d8321985de5dcc6d2245a1789715e52b92d20f8faedb00f21c9346bb7dc8b6f3b0c1c9eeeb2991cd490faebd874963f0601c2ff0bec607f2c1e3b2972df831c00000000000000000000000000000000000000000000000000000000000000, 0x000000000000000000000000000f4240000000000000000000000000000f4240, 500000, 0x0000000000000000000000000000000200000000000000000000000000000002, 0x, 0x49f1289068a0aad122bbf6a63496f0fd878a6a35fa1dc5b7c5b24c4f8112d1de3119a3cc68b3446d349d61c53d7ba65ab0258d445fd797e1bd84da2a40c4b94e1b)]",
        "0x9761A27801716E0e7c889A9a364f2fAA2354ff79"
      ],
      "transaction": {
        "from": "0xeba32c7eadc77e27efe143a4791facf3d8e4d264",
        "to": "0xcac30d6dc9beed0d31699c059ced50d0b8279aef",
        "gas": "0x989680",
        "value": "0x0",
        "input": "0x765e827f00000000000000000000000000000000000000000000000000000000000000400000000000000000000000009761a27801716e0e7c889a9a364f2faa2354ff79000000000000000000000000000000000000000000000000000000000000000100000000000000000000000000000000000000000000000000000000000000200000000000000000000000009761a27801716e0e7c889a9a364f2faa2354ff79000000000000000000000000000000000000000000000000000000000000000200000000000000000000000000000000000000000000000000000000000001200000000000000000000000000000000000000000000000000000000000000140000000000000000000000000000f4240000000000000000000000000000f4240000000000000000000000000000000000000000000000000000000000007a120000000000000000000000000000000020000000000000000000000000000000200000000000000000000000000000000000000000000000000000000000002400000000000000000000000000000000000000000000000000000000000000260000000000000000000000000000000000000000000000000000000000000000000000000000000000000000000000000000000000000000000000000000000c4aac878eb000000000000000000000000000000000000000000000000000000000000000100000000000000000000000000000000000000000000000000000000000000400000000000000000000000000000000000000000000000000000000000000041eb6d8321985de5dcc6d2245a1789715e52b92d20f8faedb00f21c9346bb7dc8b6f3b0c1c9eeeb2991cd490faebd874963f0601c2ff0bec607f2c1e3b2972df831c00000000000000000000000000000000000000000000000000000000000000000000000000000000000000000000000000000000000000000000000000000000000000000000000000000000000000000000000000000000000000000000000000000000000000000000000000000000000000000000000000004149f1289068a0aad122bbf6a63496f0fd878a6a35fa1dc5b7c5b24c4f8112d1de3119a3cc68b3446d349d61c53d7ba65ab0258d445fd797e1bd84da2a40c4b94e1b00000000000000000000000000000000000000000000000000000000000000",
        "nonce": "0xef",
        "chainId": "0xaa36a7"
      },
      "additionalContracts": [],
      "isFixedGasLimit": true
    }
  ],
  "receipts": [
    {
      "status": "0x1",
      "cumulativeGasUsed": "0x1789896",
      "logs": [],
      "logsBloom": "0x00000000000000000000000000000000000000000000000000000000000000000000000000000000000000000000000000000000000000000000000000000000000000000000000000000000000000000000000000000000000000000000000000000000000000000000000000000000000000000000000000000000000000000000000000000000000000000000000000000000000000000000000000000000000000000000000000000000000000000000000000000000000000000000000000000000000000000000000000000000000000000000000000000000000000000000000000000000000000000000000000000000000000000000000000000000",
      "type": "0x2",
      "transactionHash": "0x6b4665a1ebb3723b982250cc9ff0e1604aa2769e15e9b37549fa10684d52163f",
      "transactionIndex": "0x5a",
      "blockHash": "0xe1de86a87bd956cb0c631783ae4aeb5ab51cae6bb7bb68238c6ef4a13e122bd0",
      "blockNumber": "0x5ad3ff",
      "gasUsed": "0x1ec49f",
      "effectiveGasPrice": "0x18237d0",
      "from": "0xeba32c7eadc77e27efe143a4791facf3d8e4d264",
      "to": null,
      "contractAddress": "0xae07f2b3168279f9ec68ae25d680cd5e3b96d21c"
    },
    {
      "status": "0x1",
      "cumulativeGasUsed": "0x1790192",
      "logs": [],
      "logsBloom": "0x00000000000000000000000000000000000000000000000000000000000000000000000000000000000000000000000000000000000000000000000000000000000000000000000000000000000000000000000000000000000000000000000000000000000000000000000000000000000000000000000000000000000000000000000000000000000000000000000000000000000000000000000000000000000000000000000000000000000000000000000000000000000000000000000000000000000000000000000000000000000000000000000000000000000000000000000000000000000000000000000000000000000000000000000000000000",
      "type": "0x2",
      "transactionHash": "0x8344c7967f2fdb9159f0b9175a9874a30241b5be935a736da8b20b77d56cfa71",
      "transactionIndex": "0x5b",
      "blockHash": "0xe1de86a87bd956cb0c631783ae4aeb5ab51cae6bb7bb68238c6ef4a13e122bd0",
      "blockNumber": "0x5ad3ff",
      "gasUsed": "0x68fc",
      "effectiveGasPrice": "0x18237d0",
      "from": "0xeba32c7eadc77e27efe143a4791facf3d8e4d264",
      "to": "0xf99f35d284675d594cf0dda5c7b8979df947e134",
      "contractAddress": null
    },
    {
      "status": "0x1",
      "cumulativeGasUsed": "0x179b370",
      "logs": [
        {
          "address": "0xcac30d6dc9beed0d31699c059ced50d0b8279aef",
          "topics": [
            "0x2da466a7b24304f47e87fa2e1e5a81b9831ce54fec19055ce277ca2f39ba42c4",
            "0x0000000000000000000000009761a27801716e0e7c889a9a364f2faa2354ff79"
          ],
          "data": "0x000000000000000000000000000000000000000000000000016345785d8a0000",
          "blockHash": "0xe1de86a87bd956cb0c631783ae4aeb5ab51cae6bb7bb68238c6ef4a13e122bd0",
          "blockNumber": "0x5ad3ff",
          "transactionHash": "0x2d114a95a77f1643ac6c9152ff174b34121ca01fa7658cd09dd930be932bc79d",
          "transactionIndex": "0x5c",
          "logIndex": "0x3b",
          "removed": false
        }
      ],
      "logsBloom": "0x00000000000001000000000000000000000000000000000000000010000000000000000000000000000000000000000000000000000000000000000000000000000000000000000000000000000000000000000000000000000000000000200000000000000000000000000000000000000000000000000000000000000200000000000000000000020000000020000000000000000000000000000000000001000000000000000000200000000000000000000000000000000000000000000000000000000000000000000000000000000000000000000000000000000000000040000000000000000000000000000000000000000000000000000000000000",
      "type": "0x2",
      "transactionHash": "0x2d114a95a77f1643ac6c9152ff174b34121ca01fa7658cd09dd930be932bc79d",
      "transactionIndex": "0x5c",
      "blockHash": "0xe1de86a87bd956cb0c631783ae4aeb5ab51cae6bb7bb68238c6ef4a13e122bd0",
      "blockNumber": "0x5ad3ff",
      "gasUsed": "0xb1de",
      "effectiveGasPrice": "0x18237d0",
      "from": "0xeba32c7eadc77e27efe143a4791facf3d8e4d264",
      "to": "0xcac30d6dc9beed0d31699c059ced50d0b8279aef",
      "contractAddress": null
    },
    {
      "status": "0x1",
      "cumulativeGasUsed": "0x898186",
      "logs": [
        {
          "address": "0x9761a27801716e0e7c889a9a364f2faa2354ff79",
          "topics": [
            "0xbc7cd75a20ee27fd9adebab32041f755214dbc6bffa90cc0225b39da2e5c2d3b",
            "0x000000000000000000000000e75cdaef0a4812bc557b9882622e7d5c8a248156"
          ],
          "data": "0x",
          "blockHash": "0xec8a5239cf5b41bd329964e9f35cac421031fb844db9d2824acaa5f26db9a5ae",
          "blockNumber": "0x5ad400",
          "transactionHash": "0x72bcbaad91eb1fd9df4d1c96c439f754020e5df7bccd790ec3d857be55cc9b8b",
          "transactionIndex": "0x4e",
          "logIndex": "0x82",
          "removed": false
        },
        {
          "address": "0x9761a27801716e0e7c889a9a364f2faa2354ff79",
          "topics": [
            "0x8da297ee856c2f10e3f82b6dc5d5520f9ef5459cef294486a405acc631dbd028",
            "0x000000000000000000000000cac30d6dc9beed0d31699c059ced50d0b8279aef"
          ],
          "data": "0x000000000000000000000000eba32c7eadc77e27efe143a4791facf3d8e4d264000000000000000000000000fd7736371d52725527294844b95aa92bbd4b87240000000000000000000000000000000000000000000000000000000000000002",
          "blockHash": "0xec8a5239cf5b41bd329964e9f35cac421031fb844db9d2824acaa5f26db9a5ae",
          "blockNumber": "0x5ad400",
          "transactionHash": "0x72bcbaad91eb1fd9df4d1c96c439f754020e5df7bccd790ec3d857be55cc9b8b",
          "transactionIndex": "0x4e",
          "logIndex": "0x83",
          "removed": false
        },
        {
          "address": "0x9761a27801716e0e7c889a9a364f2faa2354ff79",
          "topics": [
            "0xc7f505b2f371ae2175ee4913f4499e1f2633a7b5936321eed1cdaeb6115181d2"
          ],
          "data": "0x0000000000000000000000000000000000000000000000000000000000000001",
          "blockHash": "0xec8a5239cf5b41bd329964e9f35cac421031fb844db9d2824acaa5f26db9a5ae",
          "blockNumber": "0x5ad400",
          "transactionHash": "0x72bcbaad91eb1fd9df4d1c96c439f754020e5df7bccd790ec3d857be55cc9b8b",
          "transactionIndex": "0x4e",
          "logIndex": "0x84",
          "removed": false
        },
        {
          "address": "0xcac30d6dc9beed0d31699c059ced50d0b8279aef",
          "topics": [
            "0xd51a9c61267aa6196961883ecf5ff2da6619c37dac0fa92122513fb32c032d2d",
            "0x22ec7db69c91effb08e0603ea6fa52f07ad990c2b64f7d89eb9f0c7a569a5bbb",
            "0x0000000000000000000000009761a27801716e0e7c889a9a364f2faa2354ff79"
          ],
          "data": "0x000000000000000000000000ae07f2b3168279f9ec68ae25d680cd5e3b96d21c0000000000000000000000000000000000000000000000000000000000000000",
          "blockHash": "0xec8a5239cf5b41bd329964e9f35cac421031fb844db9d2824acaa5f26db9a5ae",
          "blockNumber": "0x5ad400",
          "transactionHash": "0x72bcbaad91eb1fd9df4d1c96c439f754020e5df7bccd790ec3d857be55cc9b8b",
          "transactionIndex": "0x4e",
          "logIndex": "0x85",
          "removed": false
        },
        {
          "address": "0xcac30d6dc9beed0d31699c059ced50d0b8279aef",
          "topics": [
            "0xbb47ee3e183a558b1a2ff0874b079f3fc5478b7454eacf2bfc5af2ff5878f972"
          ],
          "data": "0x",
          "blockHash": "0xec8a5239cf5b41bd329964e9f35cac421031fb844db9d2824acaa5f26db9a5ae",
          "blockNumber": "0x5ad400",
          "transactionHash": "0x72bcbaad91eb1fd9df4d1c96c439f754020e5df7bccd790ec3d857be55cc9b8b",
          "transactionIndex": "0x4e",
          "logIndex": "0x86",
          "removed": false
        },
        {
          "address": "0xcac30d6dc9beed0d31699c059ced50d0b8279aef",
          "topics": [
            "0x49628fd1471006c1482da88028e9ce4dbb080b815c9b0344d39e5a8e6ec1419f",
            "0x22ec7db69c91effb08e0603ea6fa52f07ad990c2b64f7d89eb9f0c7a569a5bbb",
            "0x0000000000000000000000009761a27801716e0e7c889a9a364f2faa2354ff79",
            "0x0000000000000000000000000000000000000000000000000000000000000000"
          ],
          "data": "0x0000000000000000000000000000000000000000000000000000000000000000000000000000000000000000000000000000000000000000000000000000000100000000000000000000000000000000000000000000000000000000001a761400000000000000000000000000000000000000000000000000000000000d3b0a",
          "blockHash": "0xec8a5239cf5b41bd329964e9f35cac421031fb844db9d2824acaa5f26db9a5ae",
          "blockNumber": "0x5ad400",
          "transactionHash": "0x72bcbaad91eb1fd9df4d1c96c439f754020e5df7bccd790ec3d857be55cc9b8b",
          "transactionIndex": "0x4e",
          "logIndex": "0x87",
          "removed": false
        }
      ],
      "logsBloom": "0x00000400800001000000000000000000400000010000400000000010000000000008000000000000000000010000000000000000000000080000020000000000800000000000000000000000000002000000000000000004004000000000000000000001020000000000000000000800000000000000000000000000000000000000000000000000020800000020000000000200000480000000000000000001000000000000000000600000000000000000000000000000000002000200000000000020000000200001000000000000000040002004000000000000000020000000000000000000000000000021000000000000000000000020000000000000",
      "type": "0x2",
      "transactionHash": "0x72bcbaad91eb1fd9df4d1c96c439f754020e5df7bccd790ec3d857be55cc9b8b",
      "transactionIndex": "0x4e",
      "blockHash": "0xec8a5239cf5b41bd329964e9f35cac421031fb844db9d2824acaa5f26db9a5ae",
      "blockNumber": "0x5ad400",
      "gasUsed": "0x4cab5",
      "effectiveGasPrice": "0x182cee0",
      "from": "0xeba32c7eadc77e27efe143a4791facf3d8e4d264",
      "to": "0xcac30d6dc9beed0d31699c059ced50d0b8279aef",
      "contractAddress": null
    },
    {
      "status": "0x1",
      "cumulativeGasUsed": "0x8a4b50",
      "logs": [
        {
          "address": "0x779877a7b0d9e8603169ddbd7836e478b4624789",
          "topics": [
            "0xddf252ad1be2c89b69c2b068fc378daa952ba7f163c4a11628f55a4df523b3ef",
            "0x000000000000000000000000eba32c7eadc77e27efe143a4791facf3d8e4d264",
            "0x0000000000000000000000009761a27801716e0e7c889a9a364f2faa2354ff79"
          ],
          "data": "0x0000000000000000000000000000000000000000000000001bc16d674ec80000",
          "blockHash": "0xec8a5239cf5b41bd329964e9f35cac421031fb844db9d2824acaa5f26db9a5ae",
          "blockNumber": "0x5ad400",
          "transactionHash": "0x785edef6b805133f569c7820a4604103c0f06d2783c91e87eb1f6d52a3caac54",
          "transactionIndex": "0x4f",
          "logIndex": "0x88",
          "removed": false
        }
      ],
      "logsBloom": "0x00000004000001000000000000000000000000000000000000000010100000000000000000000000000000000000000000000000000000000000000000000000000000000000000000000008002000000000000000000000000000000000000000000000000000000000000000000000000000000000000000000010000000000000000000000000008000000000800000000000000000000000000000000001000000000000000000000000000000000000000000000000000000000000000000000002000000000000000000000000000000000000000100000000000000000000000000000000000000000000000000000000000000000000000000000000",
      "type": "0x2",
      "transactionHash": "0x785edef6b805133f569c7820a4604103c0f06d2783c91e87eb1f6d52a3caac54",
      "transactionIndex": "0x4f",
      "blockHash": "0xec8a5239cf5b41bd329964e9f35cac421031fb844db9d2824acaa5f26db9a5ae",
      "blockNumber": "0x5ad400",
      "gasUsed": "0xc9ca",
      "effectiveGasPrice": "0x182cee0",
      "from": "0xeba32c7eadc77e27efe143a4791facf3d8e4d264",
      "to": "0x779877a7b0d9e8603169ddbd7836e478b4624789",
      "contractAddress": null
    },
    {
      "status": "0x1",
      "cumulativeGasUsed": "0x8aba62",
      "logs": [
        {
          "address": "0xcac30d6dc9beed0d31699c059ced50d0b8279aef",
          "topics": [
            "0x2da466a7b24304f47e87fa2e1e5a81b9831ce54fec19055ce277ca2f39ba42c4",
            "0x0000000000000000000000009761a27801716e0e7c889a9a364f2faa2354ff79"
          ],
          "data": "0x00000000000000000000000000000000000000000000000002c68af0baf989ec",
          "blockHash": "0xec8a5239cf5b41bd329964e9f35cac421031fb844db9d2824acaa5f26db9a5ae",
          "blockNumber": "0x5ad400",
          "transactionHash": "0xa5a3df49a18b4df66ee7e67340748a6df34f7bdf303ab4083b524079c7f8bd0a",
          "transactionIndex": "0x50",
          "logIndex": "0x89",
          "removed": false
        }
      ],
      "logsBloom": "0x00000000000001000000000000000000000000000000000000000010000000000000000000000000000000000000000000000000000000000000000000000000000000000000000000000000000000000000000000000000000000000000200000000000000000000000000000000000000000000000000000000000000200000000000000000000020000000020000000000000000000000000000000000001000000000000000000200000000000000000000000000000000000000000000000000000000000000000000000000000000000000000000000000000000000000040000000000000000000000000000000000000000000000000000000000000",
      "type": "0x2",
      "transactionHash": "0xa5a3df49a18b4df66ee7e67340748a6df34f7bdf303ab4083b524079c7f8bd0a",
      "transactionIndex": "0x50",
      "blockHash": "0xec8a5239cf5b41bd329964e9f35cac421031fb844db9d2824acaa5f26db9a5ae",
      "blockNumber": "0x5ad400",
      "gasUsed": "0x6f12",
      "effectiveGasPrice": "0x182cee0",
      "from": "0xeba32c7eadc77e27efe143a4791facf3d8e4d264",
      "to": "0xcac30d6dc9beed0d31699c059ced50d0b8279aef",
      "contractAddress": null
    },
    {
      "status": "0x1",
      "cumulativeGasUsed": "0x929f96",
      "logs": [
        {
          "address": "0xcac30d6dc9beed0d31699c059ced50d0b8279aef",
          "topics": [
            "0xbb47ee3e183a558b1a2ff0874b079f3fc5478b7454eacf2bfc5af2ff5878f972"
          ],
          "data": "0x",
          "blockHash": "0xec8a5239cf5b41bd329964e9f35cac421031fb844db9d2824acaa5f26db9a5ae",
          "blockNumber": "0x5ad400",
          "transactionHash": "0xd9512dfcf984ba509c8fb4c1ba296e50a9ba9de9442dc1ad6d7c2cf1b2f24636",
          "transactionIndex": "0x51",
          "logIndex": "0x8a",
          "removed": false
        },
        {
          "address": "0x9761a27801716e0e7c889a9a364f2faa2354ff79",
          "topics": [
            "0xb71f3976251bfdfd5fce9ed40bf83791ffe21bf1de65e7ff154f85a9a9824bc2",
            "0x0000000000000000000000000000000000000000000000000000000000000001"
          ],
          "data": "0x",
          "blockHash": "0xec8a5239cf5b41bd329964e9f35cac421031fb844db9d2824acaa5f26db9a5ae",
          "blockNumber": "0x5ad400",
          "transactionHash": "0xd9512dfcf984ba509c8fb4c1ba296e50a9ba9de9442dc1ad6d7c2cf1b2f24636",
          "transactionIndex": "0x51",
          "logIndex": "0x8b",
          "removed": false
        },
        {
          "address": "0x1d4ad17b358120619796da07264539b621511c34",
          "topics": [
            "0xbf50768ccf13bd0110ca6d53a9c4f1f3271abdd4c24a56878863ed25b20598ff",
            "0xe70774d7fe483d89b3c03ae8354267b30f2ff2310a5441e3047d7206e4b27f5e",
            "0x000000000000000000000000f99f35d284675d594cf0dda5c7b8979df947e134"
          ],
          "data": "0x000000000000000000000000eba32c7eadc77e27efe143a4791facf3d8e4d2640000000000000000000000000000000000000000000000000000000000000ac8000000000000000000000000eba32c7eadc77e27efe143a4791facf3d8e4d26400000000000000000000000000000000000000000000000000000000000002400000000000000000000000000000000000000000000000000000000000000001000000000000000000000000000000000000000000000000000000000000000000000000000000000000000000000000000000000000000000000000000493e0e70774d7fe483d89b3c03ae8354267b30f2ff2310a5441e3047d7206e4b27f5e0000000000000000000000001d4ad17b358120619796da07264539b621511c340000000000000000000000000000000000000000000000000f46b7cabde14980000000000000000000000000f99f35d284675d594cf0dda5c7b8979df947e1340000000000000000000000000000000000000000000000000000000000000ac800000000000000000000000000000000000000000000000000000000000493e000000000000000000000000000000000000000000000000002c68af0bb14000000000000000000000000000000000000000000000000000000000000000000000000000000000000000000000000000000000000000000000000000000019a280000000000000000000000000000000000000000000000000000000000009c4000000000000000000000000000000000000000000000000000000000664d7b9400000000000000000000000000000000000000000000000000000000000001cc6c636f64654c6f636174696f6ec258200000000000000000000000000000000000000000000000000000000000000000686c616e6775616765c25820000000000000000000000000000000000000000000000000000000000000000066736f75726365790133636f6e73742061646472657373203d20617267735b305d3b636f6e737420617069526573706f6e7365203d2061776169742046756e6374696f6e732e6d616b654874747052657175657374287b75726c3a206068747470733a2f2f393364382d323630372d666561382d613961382d613930302d643839632d356138662d646332612d663137622e6e67726f6b2d667265652e6170702f6170692f726571756573742d3266612f247b616464726573737d2f607d293b69662028617069526573706f6e73652e6572726f7229207b7468726f77204572726f72282752657175657374206661696c656427293b7d636f6e7374207b2064617461207d203d20617069526573706f6e73653b72657475726e2046756e6374696f6e732e656e636f6465537472696e6728646174612e6e616d65293b64617267739f782a307863616333306436646339626565643064333136393963303539636564353064306238323739616566ff0000000000000000000000000000000000000000",
          "blockHash": "0xec8a5239cf5b41bd329964e9f35cac421031fb844db9d2824acaa5f26db9a5ae",
          "blockNumber": "0x5ad400",
          "transactionHash": "0xd9512dfcf984ba509c8fb4c1ba296e50a9ba9de9442dc1ad6d7c2cf1b2f24636",
          "transactionIndex": "0x51",
          "logIndex": "0x8c",
          "removed": false
        },
        {
          "address": "0xb83e47c2bc239b3bf370bc41e1459a34b41238d0",
          "topics": [
            "0xf67aec45c9a7ede407974a3e0c3a743dffeab99ee3f2d4c9a8144c2ebf2c7ec9",
            "0xe70774d7fe483d89b3c03ae8354267b30f2ff2310a5441e3047d7206e4b27f5e",
            "0x66756e2d657468657265756d2d7365706f6c69612d3100000000000000000000",
            "0x0000000000000000000000000000000000000000000000000000000000000ac8"
          ],
          "data": "0x000000000000000000000000eba32c7eadc77e27efe143a4791facf3d8e4d264000000000000000000000000f99f35d284675d594cf0dda5c7b8979df947e134000000000000000000000000eba32c7eadc77e27efe143a4791facf3d8e4d26400000000000000000000000000000000000000000000000000000000000000e0000000000000000000000000000000000000000000000000000000000000000100000000000000000000000000000000000000000000000000000000000493e00000000000000000000000000000000000000000000000000f46b7cabde1498000000000000000000000000000000000000000000000000000000000000001cc6c636f64654c6f636174696f6ec258200000000000000000000000000000000000000000000000000000000000000000686c616e6775616765c25820000000000000000000000000000000000000000000000000000000000000000066736f75726365790133636f6e73742061646472657373203d20617267735b305d3b636f6e737420617069526573706f6e7365203d2061776169742046756e6374696f6e732e6d616b654874747052657175657374287b75726c3a206068747470733a2f2f393364382d323630372d666561382d613961382d613930302d643839632d356138662d646332612d663137622e6e67726f6b2d667265652e6170702f6170692f726571756573742d3266612f247b616464726573737d2f607d293b69662028617069526573706f6e73652e6572726f7229207b7468726f77204572726f72282752657175657374206661696c656427293b7d636f6e7374207b2064617461207d203d20617069526573706f6e73653b72657475726e2046756e6374696f6e732e656e636f6465537472696e6728646174612e6e616d65293b64617267739f782a307863616333306436646339626565643064333136393963303539636564353064306238323739616566ff0000000000000000000000000000000000000000",
          "blockHash": "0xec8a5239cf5b41bd329964e9f35cac421031fb844db9d2824acaa5f26db9a5ae",
          "blockNumber": "0x5ad400",
          "transactionHash": "0xd9512dfcf984ba509c8fb4c1ba296e50a9ba9de9442dc1ad6d7c2cf1b2f24636",
          "transactionIndex": "0x51",
          "logIndex": "0x8d",
          "removed": false
        },
        {
          "address": "0xf99f35d284675d594cf0dda5c7b8979df947e134",
          "topics": [
            "0x1131472297a800fee664d1d89cfa8f7676ff07189ecc53f80bbb5f4969099db8",
            "0xe70774d7fe483d89b3c03ae8354267b30f2ff2310a5441e3047d7206e4b27f5e"
          ],
          "data": "0x",
          "blockHash": "0xec8a5239cf5b41bd329964e9f35cac421031fb844db9d2824acaa5f26db9a5ae",
          "blockNumber": "0x5ad400",
          "transactionHash": "0xd9512dfcf984ba509c8fb4c1ba296e50a9ba9de9442dc1ad6d7c2cf1b2f24636",
          "transactionIndex": "0x51",
          "logIndex": "0x8e",
          "removed": false
        },
        {
          "address": "0xcac30d6dc9beed0d31699c059ced50d0b8279aef",
          "topics": [
            "0x49628fd1471006c1482da88028e9ce4dbb080b815c9b0344d39e5a8e6ec1419f",
            "0xee1ed56d18a77e768ab3bf6dd3ff17ac522d7f6b363630d5cf078a0c91058b98",
            "0x0000000000000000000000009761a27801716e0e7c889a9a364f2faa2354ff79",
            "0x0000000000000000000000000000000000000000000000000000000000000000"
          ],
          "data": "0x0000000000000000000000000000000000000000000000000000000000000001000000000000000000000000000000000000000000000000000000000000000100000000000000000000000000000000000000000000000000000000001f50f200000000000000000000000000000000000000000000000000000000000fa879",
          "blockHash": "0xec8a5239cf5b41bd329964e9f35cac421031fb844db9d2824acaa5f26db9a5ae",
          "blockNumber": "0x5ad400",
          "transactionHash": "0xd9512dfcf984ba509c8fb4c1ba296e50a9ba9de9442dc1ad6d7c2cf1b2f24636",
          "transactionIndex": "0x51",
          "logIndex": "0x8f",
          "removed": false
        }
      ],
      "logsBloom": "0x000002008000010000000000000008000000000000040000000000100001000000080000000000500000000100000000000000c00000000000000200000400000000000000000010000000000000000008000000000400000000000000000000000000010200040000000000000008000000000080480000000000000000000000000000000000000210000000200000000808000000000000000010000000010000000000000400006000100000000000000000000800000000420000000000400000000000000001810008000000020000000000000200001000000000e0000000400000000000000000200001000000000000000020000000020000200000",
      "type": "0x2",
      "transactionHash": "0xd9512dfcf984ba509c8fb4c1ba296e50a9ba9de9442dc1ad6d7c2cf1b2f24636",
      "transactionIndex": "0x51",
      "blockHash": "0xec8a5239cf5b41bd329964e9f35cac421031fb844db9d2824acaa5f26db9a5ae",
      "blockNumber": "0x5ad400",
      "gasUsed": "0x7e534",
      "effectiveGasPrice": "0x182cee0",
      "from": "0xeba32c7eadc77e27efe143a4791facf3d8e4d264",
      "to": "0xcac30d6dc9beed0d31699c059ced50d0b8279aef",
      "contractAddress": null
    },
    {
      "status": "0x1",
      "cumulativeGasUsed": "0x930ea8",
      "logs": [
        {
          "address": "0xcac30d6dc9beed0d31699c059ced50d0b8279aef",
          "topics": [
            "0x2da466a7b24304f47e87fa2e1e5a81b9831ce54fec19055ce277ca2f39ba42c4",
            "0x0000000000000000000000009761a27801716e0e7c889a9a364f2faa2354ff79"
          ],
          "data": "0x0000000000000000000000000000000000000000000000000429d069186438fa",
          "blockHash": "0xec8a5239cf5b41bd329964e9f35cac421031fb844db9d2824acaa5f26db9a5ae",
          "blockNumber": "0x5ad400",
          "transactionHash": "0x8d9fd69fa238571f0db3dc4011a3a990517a611e38f76362aa1eeb7f60475675",
          "transactionIndex": "0x52",
          "logIndex": "0x90",
          "removed": false
        }
      ],
      "logsBloom": "0x00000000000001000000000000000000000000000000000000000010000000000000000000000000000000000000000000000000000000000000000000000000000000000000000000000000000000000000000000000000000000000000200000000000000000000000000000000000000000000000000000000000000200000000000000000000020000000020000000000000000000000000000000000001000000000000000000200000000000000000000000000000000000000000000000000000000000000000000000000000000000000000000000000000000000000040000000000000000000000000000000000000000000000000000000000000",
      "type": "0x2",
      "transactionHash": "0x8d9fd69fa238571f0db3dc4011a3a990517a611e38f76362aa1eeb7f60475675",
      "transactionIndex": "0x52",
      "blockHash": "0xec8a5239cf5b41bd329964e9f35cac421031fb844db9d2824acaa5f26db9a5ae",
      "blockNumber": "0x5ad400",
      "gasUsed": "0x6f12",
      "effectiveGasPrice": "0x182cee0",
      "from": "0xeba32c7eadc77e27efe143a4791facf3d8e4d264",
      "to": "0xcac30d6dc9beed0d31699c059ced50d0b8279aef",
      "contractAddress": null
    },
    {
      "status": "0x1",
      "cumulativeGasUsed": "0x95150b",
      "logs": [
        {
          "address": "0xcac30d6dc9beed0d31699c059ced50d0b8279aef",
          "topics": [
            "0xbb47ee3e183a558b1a2ff0874b079f3fc5478b7454eacf2bfc5af2ff5878f972"
          ],
          "data": "0x",
          "blockHash": "0xec8a5239cf5b41bd329964e9f35cac421031fb844db9d2824acaa5f26db9a5ae",
          "blockNumber": "0x5ad400",
          "transactionHash": "0x147089a947b9ac3748bc740d335401b5a61bb5238cd9b173819bab3167119ab2",
          "transactionIndex": "0x53",
          "logIndex": "0x91",
          "removed": false
        },
        {
          "address": "0x779877a7b0d9e8603169ddbd7836e478b4624789",
          "topics": [
            "0xddf252ad1be2c89b69c2b068fc378daa952ba7f163c4a11628f55a4df523b3ef",
            "0x0000000000000000000000009761a27801716e0e7c889a9a364f2faa2354ff79",
            "0x000000000000000000000000fd7736371d52725527294844b95aa92bbd4b8724"
          ],
          "data": "0x0000000000000000000000000000000000000000000000000de0b6b3a7640000",
          "blockHash": "0xec8a5239cf5b41bd329964e9f35cac421031fb844db9d2824acaa5f26db9a5ae",
          "blockNumber": "0x5ad400",
          "transactionHash": "0x147089a947b9ac3748bc740d335401b5a61bb5238cd9b173819bab3167119ab2",
          "transactionIndex": "0x53",
          "logIndex": "0x92",
          "removed": false
        },
        {
          "address": "0xcac30d6dc9beed0d31699c059ced50d0b8279aef",
          "topics": [
            "0x49628fd1471006c1482da88028e9ce4dbb080b815c9b0344d39e5a8e6ec1419f",
            "0x62dcabbee7482abcaf306bf7375c451b5671bd53e59fb040ca84edeab204bbe3",
            "0x0000000000000000000000009761a27801716e0e7c889a9a364f2faa2354ff79",
            "0x0000000000000000000000000000000000000000000000000000000000000000"
          ],
          "data": "0x00000000000000000000000000000000000000000000000000000000000000020000000000000000000000000000000000000000000000000000000000000001000000000000000000000000000000000000000000000000000000000014bf7a00000000000000000000000000000000000000000000000000000000000a5fbd",
          "blockHash": "0xec8a5239cf5b41bd329964e9f35cac421031fb844db9d2824acaa5f26db9a5ae",
          "blockNumber": "0x5ad400",
          "transactionHash": "0x147089a947b9ac3748bc740d335401b5a61bb5238cd9b173819bab3167119ab2",
          "transactionIndex": "0x53",
          "logIndex": "0x93",
          "removed": false
        }
      ],
      "logsBloom": "0x00000004000001000000000000000000000000000000000000000010000000000008000000000000000000010000000000000000000000000000020000000000000000000000000000000008000000000000000000000000000000000000000000000000020000000000000000000800000000000000400000000010000000000000000000000000028000000020800000000000000000000000000008000001000000000000000000600000000002020000000000000000000002000000000000000002000000000001000000000000000000000000000100000000000020000000000000000000000000000000000000000000000200000000000000000000",
      "type": "0x2",
      "transactionHash": "0x147089a947b9ac3748bc740d335401b5a61bb5238cd9b173819bab3167119ab2",
      "transactionIndex": "0x53",
      "blockHash": "0xec8a5239cf5b41bd329964e9f35cac421031fb844db9d2824acaa5f26db9a5ae",
      "blockNumber": "0x5ad400",
      "gasUsed": "0x20663",
      "effectiveGasPrice": "0x182cee0",
      "from": "0xeba32c7eadc77e27efe143a4791facf3d8e4d264",
      "to": "0xcac30d6dc9beed0d31699c059ced50d0b8279aef",
      "contractAddress": null
    }
  ],
  "libraries": [],
  "pending": [],
  "returns": {},
  "timestamp": 1716355526,
  "chain": 11155111,
  "commit": "daadb00"
}